{
  "_format": "hh-sol-artifact-1",
  "contractName": "NFTMarketPlace",
  "sourceName": "contracts/NFTMarketplace.sol",
  "abi": [
    {
      "inputs": [],
      "stateMutability": "nonpayable",
      "type": "constructor"
    },
    {
      "anonymous": false,
      "inputs": [
        {
          "indexed": true,
          "internalType": "address",
          "name": "owner",
          "type": "address"
        },
        {
          "indexed": true,
          "internalType": "address",
          "name": "approved",
          "type": "address"
        },
        {
          "indexed": true,
          "internalType": "uint256",
          "name": "tokenId",
          "type": "uint256"
        }
      ],
      "name": "Approval",
      "type": "event"
    },
    {
      "anonymous": false,
      "inputs": [
        {
          "indexed": true,
          "internalType": "address",
          "name": "owner",
          "type": "address"
        },
        {
          "indexed": true,
          "internalType": "address",
          "name": "operator",
          "type": "address"
        },
        {
          "indexed": false,
          "internalType": "bool",
          "name": "approved",
          "type": "bool"
        }
      ],
      "name": "ApprovalForAll",
      "type": "event"
    },
    {
      "anonymous": false,
      "inputs": [
        {
          "indexed": true,
          "internalType": "address",
          "name": "from",
          "type": "address"
        },
        {
          "indexed": true,
          "internalType": "address",
          "name": "to",
          "type": "address"
        },
        {
          "indexed": true,
          "internalType": "uint256",
          "name": "tokenId",
          "type": "uint256"
        }
      ],
      "name": "Transfer",
      "type": "event"
    },
    {
      "anonymous": false,
      "inputs": [
        {
          "indexed": true,
          "internalType": "uint256",
          "name": "tokenId",
          "type": "uint256"
        },
        {
          "indexed": false,
          "internalType": "address",
          "name": "seller",
          "type": "address"
        },
        {
          "indexed": false,
          "internalType": "address",
          "name": "owner",
          "type": "address"
        },
        {
          "indexed": false,
          "internalType": "bool",
          "name": "sold",
          "type": "bool"
        }
      ],
      "name": "idMarketItemCreated",
      "type": "event"
    },
    {
      "inputs": [
        {
          "internalType": "address",
          "name": "to",
          "type": "address"
        },
        {
          "internalType": "uint256",
          "name": "tokenId",
          "type": "uint256"
        }
      ],
      "name": "approve",
      "outputs": [],
      "stateMutability": "nonpayable",
      "type": "function"
    },
    {
      "inputs": [
        {
          "internalType": "address",
          "name": "owner",
          "type": "address"
        }
      ],
      "name": "balanceOf",
      "outputs": [
        {
          "internalType": "uint256",
          "name": "",
          "type": "uint256"
        }
      ],
      "stateMutability": "view",
      "type": "function"
    },
    {
      "inputs": [
        {
          "internalType": "uint256",
          "name": "tokenId",
          "type": "uint256"
        }
      ],
      "name": "createMarketSale",
      "outputs": [],
      "stateMutability": "payable",
      "type": "function"
    },
    {
      "inputs": [
        {
          "internalType": "string",
          "name": "tokenURI",
          "type": "string"
        },
        {
          "internalType": "uint256",
          "name": "price",
          "type": "uint256"
        }
      ],
      "name": "createToken",
      "outputs": [
        {
          "internalType": "uint256",
          "name": "",
          "type": "uint256"
        }
      ],
      "stateMutability": "payable",
      "type": "function"
    },
    {
      "inputs": [],
      "name": "fetchItemsListed",
      "outputs": [
        {
          "components": [
            {
              "internalType": "uint256",
              "name": "tokenId",
              "type": "uint256"
            },
            {
              "internalType": "address payable",
              "name": "seller",
              "type": "address"
            },
            {
              "internalType": "address payable",
              "name": "owner",
              "type": "address"
            },
            {
              "internalType": "uint256",
              "name": "price",
              "type": "uint256"
            },
            {
              "internalType": "bool",
              "name": "sold",
              "type": "bool"
            }
          ],
          "internalType": "struct NFTMarketPlace.MarketItem[]",
          "name": "",
          "type": "tuple[]"
        }
      ],
      "stateMutability": "view",
      "type": "function"
    },
    {
      "inputs": [],
      "name": "fetchMarketItem",
      "outputs": [
        {
          "components": [
            {
              "internalType": "uint256",
              "name": "tokenId",
              "type": "uint256"
            },
            {
              "internalType": "address payable",
              "name": "seller",
              "type": "address"
            },
            {
              "internalType": "address payable",
              "name": "owner",
              "type": "address"
            },
            {
              "internalType": "uint256",
              "name": "price",
              "type": "uint256"
            },
            {
              "internalType": "bool",
              "name": "sold",
              "type": "bool"
            }
          ],
          "internalType": "struct NFTMarketPlace.MarketItem[]",
          "name": "",
          "type": "tuple[]"
        }
      ],
      "stateMutability": "view",
      "type": "function"
    },
    {
      "inputs": [],
      "name": "fetchMyNFT",
      "outputs": [
        {
          "components": [
            {
              "internalType": "uint256",
              "name": "tokenId",
              "type": "uint256"
            },
            {
              "internalType": "address payable",
              "name": "seller",
              "type": "address"
            },
            {
              "internalType": "address payable",
              "name": "owner",
              "type": "address"
            },
            {
              "internalType": "uint256",
              "name": "price",
              "type": "uint256"
            },
            {
              "internalType": "bool",
              "name": "sold",
              "type": "bool"
            }
          ],
          "internalType": "struct NFTMarketPlace.MarketItem[]",
          "name": "",
          "type": "tuple[]"
        }
      ],
      "stateMutability": "view",
      "type": "function"
    },
    {
      "inputs": [
        {
          "internalType": "uint256",
          "name": "tokenId",
          "type": "uint256"
        }
      ],
      "name": "getApproved",
      "outputs": [
        {
          "internalType": "address",
          "name": "",
          "type": "address"
        }
      ],
      "stateMutability": "view",
      "type": "function"
    },
    {
      "inputs": [],
      "name": "getListingPrice",
      "outputs": [
        {
          "internalType": "uint256",
          "name": "",
          "type": "uint256"
        }
      ],
      "stateMutability": "view",
      "type": "function"
    },
    {
      "inputs": [
        {
          "internalType": "address",
          "name": "owner",
          "type": "address"
        },
        {
          "internalType": "address",
          "name": "operator",
          "type": "address"
        }
      ],
      "name": "isApprovedForAll",
      "outputs": [
        {
          "internalType": "bool",
          "name": "",
          "type": "bool"
        }
      ],
      "stateMutability": "view",
      "type": "function"
    },
    {
      "inputs": [],
      "name": "name",
      "outputs": [
        {
          "internalType": "string",
          "name": "",
          "type": "string"
        }
      ],
      "stateMutability": "view",
      "type": "function"
    },
    {
      "inputs": [
        {
          "internalType": "uint256",
          "name": "tokenId",
          "type": "uint256"
        }
      ],
      "name": "ownerOf",
      "outputs": [
        {
          "internalType": "address",
          "name": "",
          "type": "address"
        }
      ],
      "stateMutability": "view",
      "type": "function"
    },
    {
      "inputs": [
        {
          "internalType": "uint256",
          "name": "tokenId",
          "type": "uint256"
        },
        {
          "internalType": "uint256",
          "name": "price",
          "type": "uint256"
        }
      ],
      "name": "reSellToken",
      "outputs": [],
      "stateMutability": "payable",
      "type": "function"
    },
    {
      "inputs": [
        {
          "internalType": "address",
          "name": "from",
          "type": "address"
        },
        {
          "internalType": "address",
          "name": "to",
          "type": "address"
        },
        {
          "internalType": "uint256",
          "name": "tokenId",
          "type": "uint256"
        }
      ],
      "name": "safeTransferFrom",
      "outputs": [],
      "stateMutability": "nonpayable",
      "type": "function"
    },
    {
      "inputs": [
        {
          "internalType": "address",
          "name": "from",
          "type": "address"
        },
        {
          "internalType": "address",
          "name": "to",
          "type": "address"
        },
        {
          "internalType": "uint256",
          "name": "tokenId",
          "type": "uint256"
        },
        {
          "internalType": "bytes",
          "name": "data",
          "type": "bytes"
        }
      ],
      "name": "safeTransferFrom",
      "outputs": [],
      "stateMutability": "nonpayable",
      "type": "function"
    },
    {
      "inputs": [
        {
          "internalType": "address",
          "name": "operator",
          "type": "address"
        },
        {
          "internalType": "bool",
          "name": "approved",
          "type": "bool"
        }
      ],
      "name": "setApprovalForAll",
      "outputs": [],
      "stateMutability": "nonpayable",
      "type": "function"
    },
    {
      "inputs": [
        {
          "internalType": "bytes4",
          "name": "interfaceId",
          "type": "bytes4"
        }
      ],
      "name": "supportsInterface",
      "outputs": [
        {
          "internalType": "bool",
          "name": "",
          "type": "bool"
        }
      ],
      "stateMutability": "view",
      "type": "function"
    },
    {
      "inputs": [],
      "name": "symbol",
      "outputs": [
        {
          "internalType": "string",
          "name": "",
          "type": "string"
        }
      ],
      "stateMutability": "view",
      "type": "function"
    },
    {
      "inputs": [
        {
          "internalType": "uint256",
          "name": "tokenId",
          "type": "uint256"
        }
      ],
      "name": "tokenURI",
      "outputs": [
        {
          "internalType": "string",
          "name": "",
          "type": "string"
        }
      ],
      "stateMutability": "view",
      "type": "function"
    },
    {
      "inputs": [
        {
          "internalType": "address",
          "name": "from",
          "type": "address"
        },
        {
          "internalType": "address",
          "name": "to",
          "type": "address"
        },
        {
          "internalType": "uint256",
          "name": "tokenId",
          "type": "uint256"
        }
      ],
      "name": "transferFrom",
      "outputs": [],
      "stateMutability": "nonpayable",
      "type": "function"
    },
    {
      "inputs": [
        {
          "internalType": "uint256",
          "name": "_listingPrice",
          "type": "uint256"
        }
      ],
      "name": "updateListingPrice",
      "outputs": [],
      "stateMutability": "payable",
      "type": "function"
    }
  ],
  "bytecode": "0x60806040526608e1bc9bf040006009553480156200001c57600080fd5b506040518060400160405280601381526020017f4e4654204d657465766172736520546f6b656e000000000000000000000000008152506040518060400160405280600581526020017f4d594e465400000000000000000000000000000000000000000000000000000081525081600090816200009a919062000355565b508060019081620000ac919062000355565b5050503373ffffffffffffffffffffffffffffffffffffffff16600a60009054906101000a905050506200043c565b600081519050919050565b7f4e487b7100000000000000000000000000000000000000000000000000000000600052604160045260246000fd5b7f4e487b7100000000000000000000000000000000000000000000000000000000600052602260045260246000fd5b600060028204905060018216806200015d57607f821691505b60208210810362000173576200017262000115565b5b50919050565b60008190508160005260206000209050919050565b60006020601f8301049050919050565b600082821b905092915050565b600060088302620001dd7fffffffffffffffffffffffffffffffffffffffffffffffffffffffffffffffff826200019e565b620001e986836200019e565b95508019841693508086168417925050509392505050565b6000819050919050565b6000819050919050565b600062000236620002306200022a8462000201565b6200020b565b62000201565b9050919050565b6000819050919050565b620002528362000215565b6200026a62000261826200023d565b848454620001ab565b825550505050565b600090565b6200028162000272565b6200028e81848462000247565b505050565b5b81811015620002b657620002aa60008262000277565b60018101905062000294565b5050565b601f8211156200030557620002cf8162000179565b620002da846200018e565b81016020851015620002ea578190505b62000302620002f9856200018e565b83018262000293565b50505b505050565b600082821c905092915050565b60006200032a600019846008026200030a565b1980831691505092915050565b600062000345838362000317565b9150826002028217905092915050565b6200036082620000db565b67ffffffffffffffff8111156200037c576200037b620000e6565b5b62000388825462000144565b62000395828285620002ba565b600060209050601f831160018114620003cd5760008415620003b8578287015190505b620003c4858262000337565b86555062000434565b601f198416620003dd8662000179565b60005b828110156200040757848901518255600182019150602085019450602081019050620003e0565b8683101562000427578489015162000423601f89168262000317565b8355505b6001600288020188555050505b505050505050565b6142db806200044c6000396000f3fe60806040526004361061012a5760003560e01c806372b3b620116100ab578063ae677aa31161006f578063ae677aa3146103ea578063b88d4fde14610406578063be9af5361461042f578063c18763f71461044b578063c87b56dd14610476578063e985e9c5146104b35761012a565b806372b3b6201461031f57806385535b251461034f5780638fafd0211461036b57806395d89b4114610396578063a22cb465146103c15761012a565b806323b872dd116100f257806323b872dd1461022857806342842e0e1461025157806345f8fa801461027a5780636352211e146102a557806370a08231146102e25761012a565b806301ffc9a71461012f57806306fdde031461016c578063081812fc14610197578063095ea7b3146101d457806312e85585146101fd575b600080fd5b34801561013b57600080fd5b5061015660048036038101906101519190612af5565b6104f0565b6040516101639190612b3d565b60405180910390f35b34801561017857600080fd5b506101816105d2565b60405161018e9190612be8565b60405180910390f35b3480156101a357600080fd5b506101be60048036038101906101b99190612c40565b610664565b6040516101cb9190612cae565b60405180910390f35b3480156101e057600080fd5b506101fb60048036038101906101f69190612cf5565b6106aa565b005b34801561020957600080fd5b506102126107c1565b60405161021f9190612d44565b60405180910390f35b34801561023457600080fd5b5061024f600480360381019061024a9190612d5f565b6107cb565b005b34801561025d57600080fd5b5061027860048036038101906102739190612d5f565b61082b565b005b34801561028657600080fd5b5061028f61084b565b60405161029c9190612f08565b60405180910390f35b3480156102b157600080fd5b506102cc60048036038101906102c79190612c40565b610b37565b6040516102d99190612cae565b60405180910390f35b3480156102ee57600080fd5b5061030960048036038101906103049190612f2a565b610bbd565b6040516103169190612d44565b60405180910390f35b6103396004803603810190610334919061308c565b610c74565b6040516103469190612d44565b60405180910390f35b610369600480360381019061036491906130e8565b610cb6565b005b34801561037757600080fd5b50610380610eab565b60405161038d9190612f08565b60405180910390f35b3480156103a257600080fd5b506103ab611113565b6040516103b89190612be8565b60405180910390f35b3480156103cd57600080fd5b506103e860048036038101906103e39190613154565b6111a5565b005b61040460048036038101906103ff9190612c40565b6111bb565b005b34801561041257600080fd5b5061042d60048036038101906104289190613235565b611255565b005b61044960048036038101906104449190612c40565b6112b7565b005b34801561045757600080fd5b506104606114ef565b60405161046d9190612f08565b60405180910390f35b34801561048257600080fd5b5061049d60048036038101906104989190612c40565b6117db565b6040516104aa9190612be8565b60405180910390f35b3480156104bf57600080fd5b506104da60048036038101906104d591906132b8565b6118ed565b6040516104e79190612b3d565b60405180910390f35b60007f80ac58cd000000000000000000000000000000000000000000000000000000007bffffffffffffffffffffffffffffffffffffffffffffffffffffffff1916827bffffffffffffffffffffffffffffffffffffffffffffffffffffffff191614806105bb57507f5b5e139f000000000000000000000000000000000000000000000000000000007bffffffffffffffffffffffffffffffffffffffffffffffffffffffff1916827bffffffffffffffffffffffffffffffffffffffffffffffffffffffff1916145b806105cb57506105ca82611981565b5b9050919050565b6060600080546105e190613327565b80601f016020809104026020016040519081016040528092919081815260200182805461060d90613327565b801561065a5780601f1061062f5761010080835404028352916020019161065a565b820191906000526020600020905b81548152906001019060200180831161063d57829003601f168201915b5050505050905090565b600061066f826119eb565b6004600083815260200190815260200160002060009054906101000a900473ffffffffffffffffffffffffffffffffffffffff169050919050565b60006106b582610b37565b90508073ffffffffffffffffffffffffffffffffffffffff168373ffffffffffffffffffffffffffffffffffffffff1603610725576040517f08c379a000000000000000000000000000000000000000000000000000000000815260040161071c906133ca565b60405180910390fd5b8073ffffffffffffffffffffffffffffffffffffffff16610744611a36565b73ffffffffffffffffffffffffffffffffffffffff16148061077357506107728161076d611a36565b6118ed565b5b6107b2576040517f08c379a00000000000000000000000000000000000000000000000000000000081526004016107a99061345c565b60405180910390fd5b6107bc8383611a3e565b505050565b6000600954905090565b6107dc6107d6611a36565b82611af7565b61081b576040517f08c379a0000000000000000000000000000000000000000000000000000000008152600401610812906134ee565b60405180910390fd5b610826838383611b8c565b505050565b61084683838360405180602001604052806000815250611255565b505050565b606060006108596007611e85565b905060008060005b83811015610901573373ffffffffffffffffffffffffffffffffffffffff16600b6000600184610891919061353d565b815260200190815260200160002060010160009054906101000a900473ffffffffffffffffffffffffffffffffffffffff1673ffffffffffffffffffffffffffffffffffffffff16036108ee576001836108eb919061353d565b92505b80806108f990613571565b915050610861565b5060008267ffffffffffffffff81111561091e5761091d612f61565b5b60405190808252806020026020018201604052801561095757816020015b610944612a2c565b81526020019060019003908161093c5790505b50905060005b84811015610b2c573373ffffffffffffffffffffffffffffffffffffffff16600b600060018461098d919061353d565b815260200190815260200160002060010160009054906101000a900473ffffffffffffffffffffffffffffffffffffffff1673ffffffffffffffffffffffffffffffffffffffff1603610b195760006001826109e9919061353d565b90506000600b60008381526020019081526020016000209050806040518060a0016040529081600082015481526020016001820160009054906101000a900473ffffffffffffffffffffffffffffffffffffffff1673ffffffffffffffffffffffffffffffffffffffff1673ffffffffffffffffffffffffffffffffffffffff1681526020016002820160009054906101000a900473ffffffffffffffffffffffffffffffffffffffff1673ffffffffffffffffffffffffffffffffffffffff1673ffffffffffffffffffffffffffffffffffffffff168152602001600382015481526020016004820160009054906101000a900460ff161515151581525050848681518110610afc57610afb6135b9565b5b6020026020010181905250600185610b14919061353d565b945050505b8080610b2490613571565b91505061095d565b508094505050505090565b600080610b4383611e93565b9050600073ffffffffffffffffffffffffffffffffffffffff168173ffffffffffffffffffffffffffffffffffffffff1603610bb4576040517f08c379a0000000000000000000000000000000000000000000000000000000008152600401610bab90613634565b60405180910390fd5b80915050919050565b60008073ffffffffffffffffffffffffffffffffffffffff168273ffffffffffffffffffffffffffffffffffffffff1603610c2d576040517f08c379a0000000000000000000000000000000000000000000000000000000008152600401610c24906136c6565b60405180910390fd5b600360008373ffffffffffffffffffffffffffffffffffffffff1673ffffffffffffffffffffffffffffffffffffffff168152602001908152602001600020549050919050565b6000610c806007611ed0565b6000610c8c6007611e85565b9050610c983382611ee6565b610ca28185612103565b610cac8184612170565b8091505092915050565b3373ffffffffffffffffffffffffffffffffffffffff16600b600084815260200190815260200160002060020160009054906101000a900473ffffffffffffffffffffffffffffffffffffffff1673ffffffffffffffffffffffffffffffffffffffff1614610d5a576040517f08c379a0000000000000000000000000000000000000000000000000000000008152600401610d5190613758565b60405180910390fd5b6009543414610d9e576040517f08c379a0000000000000000000000000000000000000000000000000000000008152600401610d95906137ea565b60405180910390fd5b6000600b600084815260200190815260200160002060040160006101000a81548160ff02191690831515021790555080600b60008481526020019081526020016000206003018190555033600b600084815260200190815260200160002060010160006101000a81548173ffffffffffffffffffffffffffffffffffffffff021916908373ffffffffffffffffffffffffffffffffffffffff16021790555030600b600084815260200190815260200160002060020160006101000a81548173ffffffffffffffffffffffffffffffffffffffff021916908373ffffffffffffffffffffffffffffffffffffffff160217905550610e9c6008612371565b610ea7333084611b8c565b5050565b60606000610eb96007611e85565b90506000610ec76008611e85565b610ed16007611e85565b610edb919061380a565b90506000808267ffffffffffffffff811115610efa57610ef9612f61565b5b604051908082528060200260200182016040528015610f3357816020015b610f20612a2c565b815260200190600190039081610f185790505b50905060005b84811015611108573073ffffffffffffffffffffffffffffffffffffffff16600b6000600184610f69919061353d565b815260200190815260200160002060020160009054906101000a900473ffffffffffffffffffffffffffffffffffffffff1673ffffffffffffffffffffffffffffffffffffffff16036110f5576000600182610fc5919061353d565b90506000600b60008381526020019081526020016000209050806040518060a0016040529081600082015481526020016001820160009054906101000a900473ffffffffffffffffffffffffffffffffffffffff1673ffffffffffffffffffffffffffffffffffffffff1673ffffffffffffffffffffffffffffffffffffffff1681526020016002820160009054906101000a900473ffffffffffffffffffffffffffffffffffffffff1673ffffffffffffffffffffffffffffffffffffffff1673ffffffffffffffffffffffffffffffffffffffff168152602001600382015481526020016004820160009054906101000a900460ff1615151515815250508486815181106110d8576110d76135b9565b5b60200260200101819052506001856110f0919061353d565b945050505b808061110090613571565b915050610f39565b508094505050505090565b60606001805461112290613327565b80601f016020809104026020016040519081016040528092919081815260200182805461114e90613327565b801561119b5780601f106111705761010080835404028352916020019161119b565b820191906000526020600020905b81548152906001019060200180831161117e57829003601f168201915b5050505050905090565b6111b76111b0611a36565b83836123cd565b5050565b600a60009054906101000a900473ffffffffffffffffffffffffffffffffffffffff1673ffffffffffffffffffffffffffffffffffffffff163373ffffffffffffffffffffffffffffffffffffffff161461124b576040517f08c379a0000000000000000000000000000000000000000000000000000000008152600401611242906138b0565b60405180910390fd5b8060098190555050565b611266611260611a36565b83611af7565b6112a5576040517f08c379a000000000000000000000000000000000000000000000000000000000815260040161129c906134ee565b60405180910390fd5b6112b184848484612539565b50505050565b6000600b6000838152602001908152602001600020600301549050803414611314576040517f08c379a000000000000000000000000000000000000000000000000000000000815260040161130b90613968565b60405180910390fd5b33600b600084815260200190815260200160002060020160006101000a81548173ffffffffffffffffffffffffffffffffffffffff021916908373ffffffffffffffffffffffffffffffffffffffff1602179055506001600b600084815260200190815260200160002060040160006101000a81548160ff0219169083151502179055506000600b600084815260200190815260200160002060020160006101000a81548173ffffffffffffffffffffffffffffffffffffffff021916908373ffffffffffffffffffffffffffffffffffffffff1602179055506113f86008611ed0565b611403303384611b8c565b600a60009054906101000a900473ffffffffffffffffffffffffffffffffffffffff1673ffffffffffffffffffffffffffffffffffffffff166108fc6009549081150290604051600060405180830381858888f1935050505015801561146d573d6000803e3d6000fd5b50600b600083815260200190815260200160002060010160009054906101000a900473ffffffffffffffffffffffffffffffffffffffff1673ffffffffffffffffffffffffffffffffffffffff166108fc349081150290604051600060405180830381858888f193505050501580156114ea573d6000803e3d6000fd5b505050565b606060006114fd6007611e85565b905060008060005b838110156115a5573373ffffffffffffffffffffffffffffffffffffffff16600b6000600184611535919061353d565b815260200190815260200160002060020160009054906101000a900473ffffffffffffffffffffffffffffffffffffffff1673ffffffffffffffffffffffffffffffffffffffff16036115925760018361158f919061353d565b92505b808061159d90613571565b915050611505565b5060008267ffffffffffffffff8111156115c2576115c1612f61565b5b6040519080825280602002602001820160405280156115fb57816020015b6115e8612a2c565b8152602001906001900390816115e05790505b50905060005b848110156117d0573373ffffffffffffffffffffffffffffffffffffffff16600b6000600184611631919061353d565b815260200190815260200160002060020160009054906101000a900473ffffffffffffffffffffffffffffffffffffffff1673ffffffffffffffffffffffffffffffffffffffff16036117bd57600060018261168d919061353d565b90506000600b60008381526020019081526020016000209050806040518060a0016040529081600082015481526020016001820160009054906101000a900473ffffffffffffffffffffffffffffffffffffffff1673ffffffffffffffffffffffffffffffffffffffff1673ffffffffffffffffffffffffffffffffffffffff1681526020016002820160009054906101000a900473ffffffffffffffffffffffffffffffffffffffff1673ffffffffffffffffffffffffffffffffffffffff1673ffffffffffffffffffffffffffffffffffffffff168152602001600382015481526020016004820160009054906101000a900460ff1615151515815250508486815181106117a05761179f6135b9565b5b60200260200101819052506001856117b8919061353d565b945050505b80806117c890613571565b915050611601565b508094505050505090565b60606117e6826119eb565b600060066000848152602001908152602001600020805461180690613327565b80601f016020809104026020016040519081016040528092919081815260200182805461183290613327565b801561187f5780601f106118545761010080835404028352916020019161187f565b820191906000526020600020905b81548152906001019060200180831161186257829003601f168201915b505050505090506000611890612595565b905060008151036118a55781925050506118e8565b6000825111156118da5780826040516020016118c29291906139c4565b604051602081830303815290604052925050506118e8565b6118e3846125ac565b925050505b919050565b6000600560008473ffffffffffffffffffffffffffffffffffffffff1673ffffffffffffffffffffffffffffffffffffffff16815260200190815260200160002060008373ffffffffffffffffffffffffffffffffffffffff1673ffffffffffffffffffffffffffffffffffffffff16815260200190815260200160002060009054906101000a900460ff16905092915050565b60007f01ffc9a7000000000000000000000000000000000000000000000000000000007bffffffffffffffffffffffffffffffffffffffffffffffffffffffff1916827bffffffffffffffffffffffffffffffffffffffffffffffffffffffff1916149050919050565b6119f481612614565b611a33576040517f08c379a0000000000000000000000000000000000000000000000000000000008152600401611a2a90613634565b60405180910390fd5b50565b600033905090565b816004600083815260200190815260200160002060006101000a81548173ffffffffffffffffffffffffffffffffffffffff021916908373ffffffffffffffffffffffffffffffffffffffff160217905550808273ffffffffffffffffffffffffffffffffffffffff16611ab183610b37565b73ffffffffffffffffffffffffffffffffffffffff167f8c5be1e5ebec7d5bd14f71427d1e84f3dd0314c0f7b2291e5b200ac8c7c3b92560405160405180910390a45050565b600080611b0383610b37565b90508073ffffffffffffffffffffffffffffffffffffffff168473ffffffffffffffffffffffffffffffffffffffff161480611b455750611b4481856118ed565b5b80611b8357508373ffffffffffffffffffffffffffffffffffffffff16611b6b84610664565b73ffffffffffffffffffffffffffffffffffffffff16145b91505092915050565b8273ffffffffffffffffffffffffffffffffffffffff16611bac82610b37565b73ffffffffffffffffffffffffffffffffffffffff1614611c02576040517f08c379a0000000000000000000000000000000000000000000000000000000008152600401611bf990613a5a565b60405180910390fd5b600073ffffffffffffffffffffffffffffffffffffffff168273ffffffffffffffffffffffffffffffffffffffff1603611c71576040517f08c379a0000000000000000000000000000000000000000000000000000000008152600401611c6890613aec565b60405180910390fd5b611c7e8383836001612655565b8273ffffffffffffffffffffffffffffffffffffffff16611c9e82610b37565b73ffffffffffffffffffffffffffffffffffffffff1614611cf4576040517f08c379a0000000000000000000000000000000000000000000000000000000008152600401611ceb90613a5a565b60405180910390fd5b6004600082815260200190815260200160002060006101000a81549073ffffffffffffffffffffffffffffffffffffffff02191690556001600360008573ffffffffffffffffffffffffffffffffffffffff1673ffffffffffffffffffffffffffffffffffffffff168152602001908152602001600020600082825403925050819055506001600360008473ffffffffffffffffffffffffffffffffffffffff1673ffffffffffffffffffffffffffffffffffffffff16815260200190815260200160002060008282540192505081905550816002600083815260200190815260200160002060006101000a81548173ffffffffffffffffffffffffffffffffffffffff021916908373ffffffffffffffffffffffffffffffffffffffff160217905550808273ffffffffffffffffffffffffffffffffffffffff168473ffffffffffffffffffffffffffffffffffffffff167fddf252ad1be2c89b69c2b068fc378daa952ba7f163c4a11628f55a4df523b3ef60405160405180910390a4611e80838383600161265b565b505050565b600081600001549050919050565b60006002600083815260200190815260200160002060009054906101000a900473ffffffffffffffffffffffffffffffffffffffff169050919050565b6001816000016000828254019250508190555050565b600073ffffffffffffffffffffffffffffffffffffffff168273ffffffffffffffffffffffffffffffffffffffff1603611f55576040517f08c379a0000000000000000000000000000000000000000000000000000000008152600401611f4c90613b58565b60405180910390fd5b611f5e81612614565b15611f9e576040517f08c379a0000000000000000000000000000000000000000000000000000000008152600401611f9590613bc4565b60405180910390fd5b611fac600083836001612655565b611fb581612614565b15611ff5576040517f08c379a0000000000000000000000000000000000000000000000000000000008152600401611fec90613bc4565b60405180910390fd5b6001600360008473ffffffffffffffffffffffffffffffffffffffff1673ffffffffffffffffffffffffffffffffffffffff16815260200190815260200160002060008282540192505081905550816002600083815260200190815260200160002060006101000a81548173ffffffffffffffffffffffffffffffffffffffff021916908373ffffffffffffffffffffffffffffffffffffffff160217905550808273ffffffffffffffffffffffffffffffffffffffff16600073ffffffffffffffffffffffffffffffffffffffff167fddf252ad1be2c89b69c2b068fc378daa952ba7f163c4a11628f55a4df523b3ef60405160405180910390a46120ff60008383600161265b565b5050565b61210c82612614565b61214b576040517f08c379a000000000000000000000000000000000000000000000000000000000815260040161214290613c56565b60405180910390fd5b8060066000848152602001908152602001600020908161216b9190613e22565b505050565b600081116121b3576040517f08c379a00000000000000000000000000000000000000000000000000000000081526004016121aa90613f40565b60405180910390fd5b60095434146121f7576040517f08c379a00000000000000000000000000000000000000000000000000000000081526004016121ee90613fd2565b60405180910390fd5b6040518060a001604052808381526020013373ffffffffffffffffffffffffffffffffffffffff1681526020013073ffffffffffffffffffffffffffffffffffffffff16815260200182815260200160001515815250600b60008481526020019081526020016000206000820151816000015560208201518160010160006101000a81548173ffffffffffffffffffffffffffffffffffffffff021916908373ffffffffffffffffffffffffffffffffffffffff16021790555060408201518160020160006101000a81548173ffffffffffffffffffffffffffffffffffffffff021916908373ffffffffffffffffffffffffffffffffffffffff1602179055506060820151816003015560808201518160040160006101000a81548160ff021916908315150217905550905050612330333084611b8c565b817f1f70935a22f95466f067a7ec58b25e1f6addc8c315ee1491b9f028b0cd33e3343330600060405161236593929190613ff2565b60405180910390a25050565b600081600001549050600081116123bd576040517f08c379a00000000000000000000000000000000000000000000000000000000081526004016123b490614075565b60405180910390fd5b6001810382600001819055505050565b8173ffffffffffffffffffffffffffffffffffffffff168373ffffffffffffffffffffffffffffffffffffffff160361243b576040517f08c379a0000000000000000000000000000000000000000000000000000000008152600401612432906140e1565b60405180910390fd5b80600560008573ffffffffffffffffffffffffffffffffffffffff1673ffffffffffffffffffffffffffffffffffffffff16815260200190815260200160002060008473ffffffffffffffffffffffffffffffffffffffff1673ffffffffffffffffffffffffffffffffffffffff16815260200190815260200160002060006101000a81548160ff0219169083151502179055508173ffffffffffffffffffffffffffffffffffffffff168373ffffffffffffffffffffffffffffffffffffffff167f17307eab39ab6107e8899845ad3d59bd9653f200f220920489ca2b5937696c318360405161252c9190612b3d565b60405180910390a3505050565b612544848484611b8c565b61255084848484612661565b61258f576040517f08c379a000000000000000000000000000000000000000000000000000000000815260040161258690614173565b60405180910390fd5b50505050565b606060405180602001604052806000815250905090565b60606125b7826119eb565b60006125c1612595565b905060008151116125e1576040518060200160405280600081525061260c565b806125eb846127e8565b6040516020016125fc9291906139c4565b6040516020818303038152906040525b915050919050565b60008073ffffffffffffffffffffffffffffffffffffffff1661263683611e93565b73ffffffffffffffffffffffffffffffffffffffff1614159050919050565b50505050565b50505050565b60006126828473ffffffffffffffffffffffffffffffffffffffff166128b6565b156127db578373ffffffffffffffffffffffffffffffffffffffff1663150b7a026126ab611a36565b8786866040518563ffffffff1660e01b81526004016126cd94939291906141e8565b6020604051808303816000875af192505050801561270957506040513d601f19601f820116820180604052508101906127069190614249565b60015b61278b573d8060008114612739576040519150601f19603f3d011682016040523d82523d6000602084013e61273e565b606091505b506000815103612783576040517f08c379a000000000000000000000000000000000000000000000000000000000815260040161277a90614173565b60405180910390fd5b805181602001fd5b63150b7a0260e01b7bffffffffffffffffffffffffffffffffffffffffffffffffffffffff1916817bffffffffffffffffffffffffffffffffffffffffffffffffffffffff1916149150506127e0565b600190505b949350505050565b6060600060016127f7846128d9565b01905060008167ffffffffffffffff81111561281657612815612f61565b5b6040519080825280601f01601f1916602001820160405280156128485781602001600182028036833780820191505090505b509050600082602001820190505b6001156128ab578080600190039150507f3031323334353637383961626364656600000000000000000000000000000000600a86061a8153600a858161289f5761289e614276565b5b04945060008503612856575b819350505050919050565b6000808273ffffffffffffffffffffffffffffffffffffffff163b119050919050565b600080600090507a184f03e93ff9f4daa797ed6e38ed64bf6a1f0100000000000000008310612937577a184f03e93ff9f4daa797ed6e38ed64bf6a1f010000000000000000838161292d5761292c614276565b5b0492506040810190505b6d04ee2d6d415b85acef81000000008310612974576d04ee2d6d415b85acef8100000000838161296a57612969614276565b5b0492506020810190505b662386f26fc1000083106129a357662386f26fc10000838161299957612998614276565b5b0492506010810190505b6305f5e10083106129cc576305f5e10083816129c2576129c1614276565b5b0492506008810190505b61271083106129f15761271083816129e7576129e6614276565b5b0492506004810190505b60648310612a145760648381612a0a57612a09614276565b5b0492506002810190505b600a8310612a23576001810190505b80915050919050565b6040518060a0016040528060008152602001600073ffffffffffffffffffffffffffffffffffffffff168152602001600073ffffffffffffffffffffffffffffffffffffffff168152602001600081526020016000151581525090565b6000604051905090565b600080fd5b600080fd5b60007fffffffff0000000000000000000000000000000000000000000000000000000082169050919050565b612ad281612a9d565b8114612add57600080fd5b50565b600081359050612aef81612ac9565b92915050565b600060208284031215612b0b57612b0a612a93565b5b6000612b1984828501612ae0565b91505092915050565b60008115159050919050565b612b3781612b22565b82525050565b6000602082019050612b526000830184612b2e565b92915050565b600081519050919050565b600082825260208201905092915050565b60005b83811015612b92578082015181840152602081019050612b77565b60008484015250505050565b6000601f19601f8301169050919050565b6000612bba82612b58565b612bc48185612b63565b9350612bd4818560208601612b74565b612bdd81612b9e565b840191505092915050565b60006020820190508181036000830152612c028184612baf565b905092915050565b6000819050919050565b612c1d81612c0a565b8114612c2857600080fd5b50565b600081359050612c3a81612c14565b92915050565b600060208284031215612c5657612c55612a93565b5b6000612c6484828501612c2b565b91505092915050565b600073ffffffffffffffffffffffffffffffffffffffff82169050919050565b6000612c9882612c6d565b9050919050565b612ca881612c8d565b82525050565b6000602082019050612cc36000830184612c9f565b92915050565b612cd281612c8d565b8114612cdd57600080fd5b50565b600081359050612cef81612cc9565b92915050565b60008060408385031215612d0c57612d0b612a93565b5b6000612d1a85828601612ce0565b9250506020612d2b85828601612c2b565b9150509250929050565b612d3e81612c0a565b82525050565b6000602082019050612d596000830184612d35565b92915050565b600080600060608486031215612d7857612d77612a93565b5b6000612d8686828701612ce0565b9350506020612d9786828701612ce0565b9250506040612da886828701612c2b565b9150509250925092565b600081519050919050565b600082825260208201905092915050565b6000819050602082019050919050565b612de781612c0a565b82525050565b6000612df882612c6d565b9050919050565b612e0881612ded565b82525050565b612e1781612b22565b82525050565b60a082016000820151612e336000850182612dde565b506020820151612e466020850182612dff565b506040820151612e596040850182612dff565b506060820151612e6c6060850182612dde565b506080820151612e7f6080850182612e0e565b50505050565b6000612e918383612e1d565b60a08301905092915050565b6000602082019050919050565b6000612eb582612db2565b612ebf8185612dbd565b9350612eca83612dce565b8060005b83811015612efb578151612ee28882612e85565b9750612eed83612e9d565b925050600181019050612ece565b5085935050505092915050565b60006020820190508181036000830152612f228184612eaa565b905092915050565b600060208284031215612f4057612f3f612a93565b5b6000612f4e84828501612ce0565b91505092915050565b600080fd5b600080fd5b7f4e487b7100000000000000000000000000000000000000000000000000000000600052604160045260246000fd5b612f9982612b9e565b810181811067ffffffffffffffff82111715612fb857612fb7612f61565b5b80604052505050565b6000612fcb612a89565b9050612fd78282612f90565b919050565b600067ffffffffffffffff821115612ff757612ff6612f61565b5b61300082612b9e565b9050602081019050919050565b82818337600083830152505050565b600061302f61302a84612fdc565b612fc1565b90508281526020810184848401111561304b5761304a612f5c565b5b61305684828561300d565b509392505050565b600082601f83011261307357613072612f57565b5b813561308384826020860161301c565b91505092915050565b600080604083850312156130a3576130a2612a93565b5b600083013567ffffffffffffffff8111156130c1576130c0612a98565b5b6130cd8582860161305e565b92505060206130de85828601612c2b565b9150509250929050565b600080604083850312156130ff576130fe612a93565b5b600061310d85828601612c2b565b925050602061311e85828601612c2b565b9150509250929050565b61313181612b22565b811461313c57600080fd5b50565b60008135905061314e81613128565b92915050565b6000806040838503121561316b5761316a612a93565b5b600061317985828601612ce0565b925050602061318a8582860161313f565b9150509250929050565b600067ffffffffffffffff8211156131af576131ae612f61565b5b6131b882612b9e565b9050602081019050919050565b60006131d86131d384613194565b612fc1565b9050828152602081018484840111156131f4576131f3612f5c565b5b6131ff84828561300d565b509392505050565b600082601f83011261321c5761321b612f57565b5b813561322c8482602086016131c5565b91505092915050565b6000806000806080858703121561324f5761324e612a93565b5b600061325d87828801612ce0565b945050602061326e87828801612ce0565b935050604061327f87828801612c2b565b925050606085013567ffffffffffffffff8111156132a05761329f612a98565b5b6132ac87828801613207565b91505092959194509250565b600080604083850312156132cf576132ce612a93565b5b60006132dd85828601612ce0565b92505060206132ee85828601612ce0565b9150509250929050565b7f4e487b7100000000000000000000000000000000000000000000000000000000600052602260045260246000fd5b6000600282049050600182168061333f57607f821691505b602082108103613352576133516132f8565b5b50919050565b7f4552433732313a20617070726f76616c20746f2063757272656e74206f776e6560008201527f7200000000000000000000000000000000000000000000000000000000000000602082015250565b60006133b4602183612b63565b91506133bf82613358565b604082019050919050565b600060208201905081810360008301526133e3816133a7565b9050919050565b7f4552433732313a20617070726f76652063616c6c6572206973206e6f7420746f60008201527f6b656e206f776e6572206f7220617070726f76656420666f7220616c6c000000602082015250565b6000613446603d83612b63565b9150613451826133ea565b604082019050919050565b6000602082019050818103600083015261347581613439565b9050919050565b7f4552433732313a2063616c6c6572206973206e6f7420746f6b656e206f776e6560008201527f72206f7220617070726f76656400000000000000000000000000000000000000602082015250565b60006134d8602d83612b63565b91506134e38261347c565b604082019050919050565b60006020820190508181036000830152613507816134cb565b9050919050565b7f4e487b7100000000000000000000000000000000000000000000000000000000600052601160045260246000fd5b600061354882612c0a565b915061355383612c0a565b925082820190508082111561356b5761356a61350e565b5b92915050565b600061357c82612c0a565b91507fffffffffffffffffffffffffffffffffffffffffffffffffffffffffffffffff82036135ae576135ad61350e565b5b600182019050919050565b7f4e487b7100000000000000000000000000000000000000000000000000000000600052603260045260246000fd5b7f4552433732313a20696e76616c696420746f6b656e2049440000000000000000600082015250565b600061361e601883612b63565b9150613629826135e8565b602082019050919050565b6000602082019050818103600083015261364d81613611565b9050919050565b7f4552433732313a2061646472657373207a65726f206973206e6f74206120766160008201527f6c6964206f776e65720000000000000000000000000000000000000000000000602082015250565b60006136b0602983612b63565b91506136bb82613654565b604082019050919050565b600060208201905081810360008301526136df816136a3565b9050919050565b7f6f6e6c7920746865206f776e6572206f6620746865206974656d2063616e206460008201527f6f20746865206f7065726174696f6e0000000000000000000000000000000000602082015250565b6000613742602f83612b63565b915061374d826136e6565b604082019050919050565b6000602082019050818103600083015261377181613735565b9050919050565b7f5072696365206d75737420626520657175616c20746f6c697374696e6750726960008201527f6365000000000000000000000000000000000000000000000000000000000000602082015250565b60006137d4602283612b63565b91506137df82613778565b604082019050919050565b60006020820190508181036000830152613803816137c7565b9050919050565b600061381582612c0a565b915061382083612c0a565b92508282039050818111156138385761383761350e565b5b92915050565b7f6f6e6c79206f776e6572206f662074686520636f6e74726163742063616e206360008201527f68616e676520746865206c697374696e67207072696365000000000000000000602082015250565b600061389a603783612b63565b91506138a58261383e565b604082019050919050565b600060208201905081810360008301526138c98161388d565b9050919050565b7f506c65617365207375626d6974207468652061736b696e67207072696365206960008201527f6e206f7264657220746f20636f6d706c6574652074686520657861637420707260208201527f6963650000000000000000000000000000000000000000000000000000000000604082015250565b6000613952604383612b63565b915061395d826138d0565b606082019050919050565b6000602082019050818103600083015261398181613945565b9050919050565b600081905092915050565b600061399e82612b58565b6139a88185613988565b93506139b8818560208601612b74565b80840191505092915050565b60006139d08285613993565b91506139dc8284613993565b91508190509392505050565b7f4552433732313a207472616e736665722066726f6d20696e636f72726563742060008201527f6f776e6572000000000000000000000000000000000000000000000000000000602082015250565b6000613a44602583612b63565b9150613a4f826139e8565b604082019050919050565b60006020820190508181036000830152613a7381613a37565b9050919050565b7f4552433732313a207472616e7366657220746f20746865207a65726f2061646460008201527f7265737300000000000000000000000000000000000000000000000000000000602082015250565b6000613ad6602483612b63565b9150613ae182613a7a565b604082019050919050565b60006020820190508181036000830152613b0581613ac9565b9050919050565b7f4552433732313a206d696e7420746f20746865207a65726f2061646472657373600082015250565b6000613b42602083612b63565b9150613b4d82613b0c565b602082019050919050565b60006020820190508181036000830152613b7181613b35565b9050919050565b7f4552433732313a20746f6b656e20616c7265616479206d696e74656400000000600082015250565b6000613bae601c83612b63565b9150613bb982613b78565b602082019050919050565b60006020820190508181036000830152613bdd81613ba1565b9050919050565b7f45524337323155524953746f726167653a2055524920736574206f66206e6f6e60008201527f6578697374656e7420746f6b656e000000000000000000000000000000000000602082015250565b6000613c40602e83612b63565b9150613c4b82613be4565b604082019050919050565b60006020820190508181036000830152613c6f81613c33565b9050919050565b60008190508160005260206000209050919050565b60006020601f8301049050919050565b600082821b905092915050565b600060088302613cd87fffffffffffffffffffffffffffffffffffffffffffffffffffffffffffffffff82613c9b565b613ce28683613c9b565b95508019841693508086168417925050509392505050565b6000819050919050565b6000613d1f613d1a613d1584612c0a565b613cfa565b612c0a565b9050919050565b6000819050919050565b613d3983613d04565b613d4d613d4582613d26565b848454613ca8565b825550505050565b600090565b613d62613d55565b613d6d818484613d30565b505050565b5b81811015613d9157613d86600082613d5a565b600181019050613d73565b5050565b601f821115613dd657613da781613c76565b613db084613c8b565b81016020851015613dbf578190505b613dd3613dcb85613c8b565b830182613d72565b50505b505050565b600082821c905092915050565b6000613df960001984600802613ddb565b1980831691505092915050565b6000613e128383613de8565b9150826002028217905092915050565b613e2b82612b58565b67ffffffffffffffff811115613e4457613e43612f61565b5b613e4e8254613327565b613e59828285613d95565b600060209050601f831160018114613e8c5760008415613e7a578287015190505b613e848582613e06565b865550613eec565b601f198416613e9a86613c76565b60005b82811015613ec257848901518255600182019150602085019450602081019050613e9d565b86831015613edf5784890151613edb601f891682613de8565b8355505b6001600288020188555050505b505050505050565b7f5072696365206d757374206265206174206c6561737420310000000000000000600082015250565b6000613f2a601883612b63565b9150613f3582613ef4565b602082019050919050565b60006020820190508181036000830152613f5981613f1d565b9050919050565b7f5072696365206d75737420626520657175616c20746f206c697374696e67207060008201527f7269636500000000000000000000000000000000000000000000000000000000602082015250565b6000613fbc602483612b63565b9150613fc782613f60565b604082019050919050565b60006020820190508181036000830152613feb81613faf565b9050919050565b60006060820190506140076000830186612c9f565b6140146020830185612c9f565b6140216040830184612b2e565b949350505050565b7f436f756e7465723a2064656372656d656e74206f766572666c6f770000000000600082015250565b600061405f601b83612b63565b915061406a82614029565b602082019050919050565b6000602082019050818103600083015261408e81614052565b9050919050565b7f4552433732313a20617070726f766520746f2063616c6c657200000000000000600082015250565b60006140cb601983612b63565b91506140d682614095565b602082019050919050565b600060208201905081810360008301526140fa816140be565b9050919050565b7f4552433732313a207472616e7366657220746f206e6f6e20455243373231526560008201527f63656976657220696d706c656d656e7465720000000000000000000000000000602082015250565b600061415d603283612b63565b915061416882614101565b604082019050919050565b6000602082019050818103600083015261418c81614150565b9050919050565b600081519050919050565b600082825260208201905092915050565b60006141ba82614193565b6141c4818561419e565b93506141d4818560208601612b74565b6141dd81612b9e565b840191505092915050565b60006080820190506141fd6000830187612c9f565b61420a6020830186612c9f565b6142176040830185612d35565b818103606083015261422981846141af565b905095945050505050565b60008151905061424381612ac9565b92915050565b60006020828403121561425f5761425e612a93565b5b600061426d84828501614234565b91505092915050565b7f4e487b7100000000000000000000000000000000000000000000000000000000600052601260045260246000fdfea26469706673582212205216f7f2f103bec58e955770e454d219b01a805fd931653df27e0b095ddefc8364736f6c63430008120033",
  "linkReferences": {},
  "deployedLinkReferences": {}
}